:020000040800F2
:1000000040080020CD0100085F200008D91E00082C
:100010005D2000085504000851250008000000007C
:100020000000000000000000000000006320000845
:100030001906000800000000612000086520000883
:10004000E7010008E7010008E7010008E7010008F0
:10005000E7010008E7010008E7010008E7010008E0
:10006000E7010008E7010008E7010008E7010008D0
:10007000E7010008E7010008E7010008E7010008C0
:1000800059040008E7010008E7010008E70100083B
:10009000E7010008E7010008E7010008E7010008A0
:1000A000E7010008E7010008E7010008E701000890
:1000B000E7010008E7010008E7010008E701000880
:1000C000E7010008E7010008E7010008E701000870
:1000D000E70100083925000845250008E701000868
:1000E000E7010008E7010008E7010008E701000850
:1000F000E7010008E7010008E7010008E701000840
:10010000E7010008E7010008E7010008E70100082F
:10011000E7010008E7010008E7010008E70100081F
:10012000E7010008E7010008E7010008E70100080F
:1001300000F002F800F03AF80AA090E8000C8244BF
:100140008344AAF10107DA4501D100F02FF8AFF29C
:10015000090EBAE80F0013F0010F18BFFB1A43F0A5
:1001600001031847E026000000270000103A24BFD2
:1001700078C878C1FAD8520724BF30C830C144BF0C
:1001800004680C607047000000230024002500264E
:10019000103A28BF78C1FBD8520728BF30C148BFEA
:1001A0000B6070471FB51FBD10B510BD00F099F86A
:1001B0001146FFF7F7FF02F015FA00F0B7F803B4A5
:1001C000FFF7F2FF03BC00F0BFF8000009488047CA
:1001D00009480047FEE7FEE7FEE7FEE7FEE7FEE729
:1001E000FEE7FEE7FEE7FEE704480549054A064B41
:1001F00070470000E32000083101000840020020A1
:1002000040080020400400204004002010B5431C9A
:1002100002E010F8011B71B18107FAD14FF00132F1
:1002200002C88C1A8C4314EAC211F9D0C01A0A060B
:1002300003D0C01E10BDC01A10BD0A0401D0801E1C
:1002400010BD0902FCD0401E10BD4FF00002042971
:10025000C0F0128010F0030C00F01B80CCF1040CF5
:10026000BCF1020F18BF00F8012BA8BF20F8022B29
:10027000A1EB0C0100F00DB85FEAC17C24BF00F8CF
:10028000012B00F8012B48BF00F8012B70474FF0FD
:10029000000200B5134694469646203922BFA0E8D6
:1002A0000C50A0E80C50B1F12001BFF4F7AF0907E2
:1002B00028BFA0E80C5048BF0CC05DF804EB8900D3
:1002C00028BF40F8042B08BF704748BF20F8022B16
:1002D00011F0804F18BF00F8012B7047704770472E
:1002E0007047754600F02CF8AE4605006946534647
:1002F00020F00700854618B020B5FFF775FFBDE870
:1003000020404FF000064FF000074FF000084FF07C
:10031000000B21F00701AC46ACE8C009ACE8C0090D
:10032000ACE8C009ACE8C0098D46704710B504467A
:10033000AFF300802046BDE81040FFF740BF00004B
:1003400000487047E001002001491820ABBEFEE7DD
:10035000260002007047000070B5044600688168FE
:10036000C943C90717D1816821F00101816000F0FC
:100370001BFF05460AE000BF00F016FF401B0228E5
:1003800004D920688068C043C00706D02068806810
:10039000C043C007F0D0002070BDA06A40F010003C
:1003A000A062E06A40F00100E062012070BD000040
:1003B000F8B500260446009600688168C943C9075D
:1003C0002DD0816841F0010181601648164900680E
:1003D000B0FBF1F000E0401E00900028FBD100F0DF
:1003E000E3FE054616E000BF00F0DEFE401B0228DB
:1003F00010D920688068C043C0070BD0A06A40F0C5
:100400001000A062E06A40F00100E06284F824601D
:100410000120F8BD20688068C043C007E4D10020F7
:10042000F8BD00001800002040420F0010B5084839
:1004300000F0D2FA0A21064800F030FA044800F031
:100440006DF984B2024800F027FB204610BD000081
:10045000DC000020FEE70000014800F0F3BB0000D4
:100460009C01002030B590F840500124AC40C56B91
:100470006C60046863604368102B036803D0996064
:100480000068C26030BD9A600068C16030BD000085
:1004900010B500F037F808B1114810BDCC2000F0BD
:1004A00085F8442000F082F840F2EE2000F064FD70
:1004B00000F028F8CC2000F079F8BE2000F076F8A3
:1004C00000F04CF8044600F049F844EA002000B27D
:1004D00002F012F9BDE810406FF0030102F056B9C6
:1004E0000000C6C21FB500200190029003904FF497
:1004F000007000906946024800F050FD1FBD0000EA
:100500000010014010B500F017F800F075F84FF436
:10051000F07000F031FD00F067F8FFF7E3FF3C20DA
:1005200000F02AFD00F070F804464FF4D27000F09D
:1005300023FD204610BD00001FB5002002904FF49F
:10054000007000900120019003200390694602484A
:1005500000F024FD1FBD0000001001402DE9F04116
:100560000025FFF7BFFF00245FF00107FFF7E4FF5E
:1005700000F042F8012000F0FFFC00F035F8FFF732
:10058000B1FF0A2000F0F8FC00F03EF818B107FABD
:1005900004F62E43F5B2322000F0EEFC641CE4B207
:1005A000082CE3D32846BDE8F081000070B504466E
:1005B000FFF7C2FF5FF0000500F01EF8012000F019
:1005C000DBFCE00701D000F00FF83C2000F0D4FC89
:1005D00000F00AF80F2000F0CFFC6D1C6408EDB2AB
:1005E000082DE9D370BD000001225102014800F03E
:1005F000D6BD00000010014000224FF400710148F8
:1006000000F0CDBD001001404FF40071014800F032
:10061000C1BD000000100140704772B6FEE7000047
:10062000F8B50024009490F824202546012A12D021
:10063000012280F824204A681F23072A0DD2066869
:10064000776B521E02EB820293409F430B689340EC
:100650001F43776319E00220F8BD06680D2A0AD20D
:10066000376BD21F02EB820293409F430B6893408B
:100670001F43376309E0F76A0D3A02EB82029340A9
:100680009F430B6893401F43F7620A68072306687D
:100690000A2A0AD3F7680A3A02EB420293409F43C0
:1006A0008B6893401F43F76008E0376902EB420212
:1006B00093409F438B6893401F4337610A68102A19
:1006C00001D0112A20D1124B02689A4217D19368A7
:1006D0001B0219D4936843F400039360096810293E
:1006E00012D10C490C4A0968B1FBF2F101EB81010E
:1006F000490000E0491E00910029FBD104E0816A15
:1007000041F020018162012480F824502046F8BD88
:10071000002401401800002040420F000068C06C17
:10072000704700002DE9F04104004FF000057FD034
:10073000A06A002628B9E66284F82460204600F00A
:1007400081F82046FFF708FEA16AC90600D420B14F
:10075000A06A40F01000A0626AE0A16A21F488510A
:1007600041F00201A162334923688B42E16904D15F
:10077000B1F5402F01D14FF40021277B4FF4807C4D
:1007800041EA470261680A43A168614508D001292E
:1007900006D0002194F814E0BEF1010F02D00AE067
:1007A0006146F7E7C7B1A76A47F02007A762E76A83
:1007B00047F00107E7625F6827F469470F435F600E
:1007C000236899681C4F394011439960A1686145BD
:1007D0000BD0012909D00CE0DFF860E0A7690EEB2F
:1007E00047370F4347F40061E5E7218A0D05A5F57A
:1007F00080152168CB6A23F470032B43CB622168F8
:1008000089680F4B1940914208D1E662A16A21F034
:10081000020141F00101A162BDE8F081A06A20F06F
:10082000020040F01000A062E06A40F00100E062C7
:100830000120F1E7003C0140FDF7E1FF00E0FFFF90
:10084000FE0E1FFF00B585B00021009101910291BD
:10085000039100680E49884218D10E48816941F41D
:1008600000718161816901F400710491816941F035
:10087000040181618069694600F00400049002204F
:10088000009003200190044800F088FB05B000BDF3
:100890000024014000100240000801402DE9F84307
:1008A00000270D460446009700F07EFC8046206835
:1008B0008168C90508D5A06A40F02000A06284F8CC
:1008C00024700120BDE8F8834168C90503D4C06ADB
:1008D00010F4700F2AD0022000F018FD3B4909687F
:1008E000B1FBF0F62068036939490B424FEA610118
:1008F0004FEAA1121FD1C3684FEA611C13EA0C0F23
:1009000019D103690B4225D1C068104222D11420AD
:1009100023E0681C0AD02DB100F046FCA0EB0800D3
:10092000A84203D920680068800725D520680068A0
:100930008007EED52DE003690B4202D1C168114258
:1009400006D0026923490A4206D1C068084203D191
:10095000542002E0292000E0FC204643009816E0E5
:10096000681C11D02DB100F01FFCA0EB0800A842BC
:100970000AD90098B04207D2A06A40F00400A062F1
:1009800084F8247003209DE70098401C0090B0423A
:10099000E6D321686FF012000860A06A40F400708E
:1009A000A06220688068C0F3424007280CD1207BF9
:1009B00050B9A06A20F48070A062A06AC00403D479
:1009C000A06A40F00100A06200207BE71800002030
:1009D000244992244992240070B5044690F82400DA
:1009E00001280DD0012084F824002046FFF7E0FC08
:1009F00002004FF0000005D084F82400104670BDBE
:100A0000022070BDA16A40F20123994341F4807134
:100A1000A1621F4D23681F49AB4218D10E6816F41E
:100A2000702F14D0A66A46F48016A6620E6876056A
:100A300005D5A66A26F4005646F48056A662A66A34
:100A4000F6040AD5E66A26F00606E66206E0A66A1D
:100A500026F48016A6625E68E9E7E06284F8240066
:100A60006FF00200186020688368C3F34243072BCD
:100A700005D1A84208D1096811F4702F04D081680B
:100A800041F480118160B9E7816841F4A001F9E780
:100A9000002801400424014010B5044690F82400C9
:100AA000012807D0012084F824002046FFF754FCD9
:100AB00010B107E0022010BDA16A21F4885141F075
:100AC0000101A162002184F8241010BD10B590F836
:100AD00021100022022905D00421816380F8202002
:100AE000012010BD01680B6823F00E030B60016844
:100AF0000B6823F001030B6090F84030C46B0121B8
:100B000001FA03F3636080F8211080F8202010467A
:100B100010BD00002DE9F05F90F82110002402299B
:100B200003D004218163012485E001680A6822F072
:100B30000E020A6001680A6822F001020A603F4E54
:100B40003E4FB215DFF8F4C0DFF8F090DFF8ECA00C
:100B5000DFF8E8B0DFF8E4E00168783F1301150240
:100B6000ACF1640CA9F15009AAF13C0AABF1280BD5
:100B7000AEF1140E4FF48018B14227D9B9420ED00D
:100B8000614512D049451DD0514518D0594518D05E
:100B9000714501D1424615E0294EB14201D10122F1
:100BA00010E0274E1436B14201D110220AE0244E43
:100BB0002836B14206D0224A3C32914201D11A462F
:100BC00000E02A461E49091F0A602BE0B94213D0F3
:100BD000614517D0494522D051451DD059451DD0FA
:100BE000714501D142461AE0B14202D14FF0807204
:100BF00015E0134EB14201D1012210E0104E14361F
:100C0000B14201D110220AE00D4E2836B14206D081
:100C10000B4A3C32914201D11A4600E02A4607496C
:100C200080394A60012180F82110002180F82010CD
:100C3000416B01B188472046BDE8F09F800002402B
:100C4000080402402DE9F05FC16B0A6801680B6877
:100C5000046C4FF0040808FA04F8844D844E854F64
:100C6000DFF814C2DFF81492DFF814A2DFF814B230
:100C7000DFF814E218EA020F65D05FEA437862D524
:100C80000A68920603D40A6822F004020A60DFF8B8
:100C9000F0814FF48062016808F114081301140216
:100CA000414524D9A9420DD0B1420FD0B9421AD042
:100CB000614515D0494515D0514501D1120312E0C7
:100CC000594501D104220EE0714501D140220AE0CC
:100CD0006D4D1435A94206D06B4A2832914201D19C
:100CE0001A4600E022466749091F0A6029E0A94226
:100CF00013D0B14215D0B94220D061451BD049452F
:100D00001BD0514502D14FF4800217E0414502D17A
:100D10004FF0806212E0594501D104220EE0714586
:100D200001D140220AE0584D1435A94206D0564A56
:100D30002832914201D11A4600E022464B49083937
:100D40004A60C16A71E04FF0020808FA04F818EA34
:100D5000020F70D05FEA83786DD50A68920606D4D8
:100D60000A6822F00A020A60012180F82110DFF8E7
:100D700010814FF40072016808F114081301140285
:100D8000414524D9A9420DD0B1420FD0B9421AD061
:100D9000614515D0494515D0514501D1120312E0E6
:100DA000594501D102220EE0714501D120220AE00D
:100DB000354D1435A94206D0334A2832914201D12B
:100DC0001A4600E022462F49091F0A6029E0A9427D
:100DD00013D0B14215D0B94220D061451BD049454E
:100DE0001BD0514502D14FF4001217E0414502D10A
:100DF0004FF0007212E0594501D102220EE0714518
:100E000001D120220AE0204D1435A94206D01E4A05
:100E10002832914201D11A4600E02246134908398E
:100E20004A60002180F82010816A00291CD0BDE8AA
:100E3000F05F0847FFE70825A540154214D01A07C0
:100E400012D50A6822F00E020A6090F84020C36BA7
:100E5000012101FA02F25A60816380F82110002119
:100E600080F82010016BE0E7BDE8F09F0800024029
:100E70001C00024030000240440002405800024082
:100E80006C000240080402401C04024030B560B10E
:100E90001A4B026814219A4209D2194B1344B3FB2E
:100EA000F1F18900016417490AE0012030BD134BBC
:100EB0005B421344B3FBF1F1890001640F49083927
:100EC000C163022180F82110136843F6F0718B434F
:100ED000F0E901142143D0E902452C432143046980
:100EE000214344692143846921431943116000214E
:100EF0004163012242770177084630BD0804024071
:100F0000F8FFFDBF0000024070B5044690F82000D5
:100F1000002501280CD0012084F8200094F82160DD
:100F20000020012E06D084F820000225284670BD3E
:100F3000022070BD022684F82160A0632068066844
:100F400026F0010606602046FFF78CFAE06A0028CA
:100F50002068016802D041F00E0106E021F0040192
:100F600001602068016841F00A01016020680168A1
:100F700041F001010160D9E770B5044600F014F9B1
:100F80000546601C02D004480078044400F00CF9C7
:100F9000401BA042FAD370BD0C0000202DE9F84F91
:100FA000DFF8C8910024A9F1040B23460F2709F1AB
:100FB000040AABF1040ED1E00125A54006EA0502C2
:100FC000AA4276D1DFF8A8C14E68A6EB0C086645A8
:100FD0002BD00DDC032E34D005DC36B3012E19D016
:100FE000022E2FD11BE0112E16D0122E2AD119E07D
:100FF000B8F5881F19D006DCB8F5803F15D0B8F5D4
:10100000801F1FD111E0B8F5001F0ED0B8F5041FE6
:1010100018D10AE0CB6815E0CB681B1D12E0CB6845
:1010200008330FE0CB680C330CE08B682BB1012B3D
:101030004FF0080303D0456104E0042302E005619A
:1010400000E00023FF2A01D8064601E000F1040673
:101050004FEA840501D9A5F12005D6F8008007FAEA
:1010600005FC28EA0C0803FA05F548EA0508C6F865
:1010700000804D68ED0070D53E4DAE6946F001062A
:10108000AE61AD6924F0030605F0010500953A4D07
:1010900006EB050CDCF80850A607360F07FA06F831
:1010A00025EA0805DFF8D480404503D14FF0000859
:1010B00025E052E0DFF8C880404502D14FF001083A
:1010C0001DE0DFF8C080404502D14FF0020816E075
:1010D000DFF8B480404502D14FF003080FE0DFF89D
:1010E000AC80404502D14FF0040808E0DFF8A08052
:1010F000404502D14FF0050801E04FF0060808FA1C
:1011000006F848EA0508CCF808804D68D9F8006070
:10111000ED024D4601D5164300E096432E604D6822
:10112000DAF80060AD02554601D5164300E096435B
:101130002E604D68DBF80060AD035D4601D51643B7
:1011400000E096432E604D68DEF80060ED037546C2
:1011500001D5164300E096432E60641C0A681646CB
:10116000E2407FF429AFBDE8F88F00000804014099
:101170000000111000100240000001400008014072
:10118000000C014000100140001401400018014013
:10119000001C01408068084000D0012070470AB15F
:1011A000016170470904FBE701488068704700004F
:1011B0000C00002002488168027811448160704769
:1011C0000C000020074810B5016841F010010160D3
:1011D000032000F089F8022000F006F800F024F85F
:1011E000002010BD0020024070B50D4D04464FF4A4
:1011F0007A712878B1FBF0F00A490968B1FBF0F088
:1012000000F0C2FB48B9102C07D200222146501E24
:1012100000F04AF800206C6070BD012070BD000035
:101220000C000020180000200E4808B5816941F02C
:1012300001018161816901F001010091C16941F001
:101240008051C161C06900F080500090052000F01D
:101250004BF80548416821F0E06141F000714160C0
:1012600008BD0000001002400000014000280DDB16
:1012700000F01F02012191404009800000F1E020B0
:10128000C0F88011BFF34F8FBFF36F8F70470028F6
:1012900009DB00F01F02012191404009800000F1AC
:1012A000E020C0F800117047F0B40E4B1B680C46EC
:1012B000C3F30223C3F10705042D00D90425191D2A
:1012C000072901D2002300E0DB1E012606FA05F102
:1012D000491E214099409E40761E16403143F0BC85
:1012E00001F037B90CED00E0064900F0070208688C
:1012F0004FF6FF03184040EA0220034A10430860FB
:10130000704700000CED00E00000FA0510B5014642
:101310000020284C04292FD00BDC012930D00229D1
:1013200029D100F06BF96168C1F38131491C490092
:101330001FE0082920D010291DD161682268D20140
:1013400019D51D48C1F38342C903805C0AD5616881
:10135000194AC1F34041921E515C184AB2FBF1F1A7
:10136000484301E0164948436168490203D44000FC
:101370000321B0FBF1F010BDBDE8104000F04EB904
:10138000226AC2F30121012903D1920701D5C803C2
:1013900010BD022905D1626A920702D549F6404084
:1013A00010BD0329FCD121688903F9D54FF22440EF
:1013B00010BD0000001002401C28000800127A0036
:1013C00000093D002DE9F84305460078354CC0077B
:1013D00054D0E0690026C00008D4E06940F0805095
:1013E000E061E069012600F0805000902E4801681D
:1013F000C90512D40168804641F480710160FFF78D
:10140000D3FE074605E000BFFFF7CEFEC01B6428F1
:1014100023D8D8F80000C005F6D5206A10F4407033
:1014200021D0A98801F4407181421CD0206A1F4953
:10143000012220F440700A6000220A602062C00786
:1014400011D0FFF7B1FE074641F2883808E000BF2F
:10145000FFF7AAFEC11B414502D90320BDE8F8836E
:10146000206A8007F4D5206A696820F44070084338
:1014700020621EB1E06920F08050E061287880078A
:1014800005D56068A96820F440400843606028786A
:10149000C00605D56068696920F480000843606073
:1014A0000020DBE700100240007000404004424290
:1014B0002DE9F0470F46050061D0434E306800F03B
:1014C0000700B84209D2306820F007003843306086
:1014D000306800F00700B84251D128683B4C8107C2
:1014E00012D5400703D5606840F4E060606028785A
:1014F000000703D5606840F4605060606068A968C8
:1015000020F0F000084360602878C00728D06868A1
:10151000012810D02168022810D0890700292EDA6E
:10152000616821F0030101436160FFF73DFE8046E1
:1015300041F288390DE021688903EFE78901EDE781
:10154000FFF732FEA0EB0801494502D90320BDE8B0
:10155000F0876068696800F00C00B0EB810FEFD194
:10156000306800F00700B8420BD9306820F007005F
:1015700038433060306800F00700B84201D00120E5
:10158000E5E72878400705D56068E96820F4E06061
:10159000084360602878000706D56068296920F450
:1015A000605040EAC100606000F038F86168084AA5
:1015B000C1F30311515CC840064908600648006841
:1015C000FFF712FE0020C2E7002002400010024098
:1015D0002C280008180000201000002004480549AD
:1015E00000684968044AC1F30221515CC840704751
:1015F00018000020001002403C280008044805495B
:1016000000684968044AC1F3C221515CC840704770
:1016100018000020001002403C2800080E4A5168C3
:101620000E4801F00C03042B11D0082B0FD10C48ED
:10163000C1F38343C903C05C0AD55168084AC1F3AA
:101640004041921E515C054A5043B0FBF1F0704797
:1016500004494843704700000010024000127A001D
:101660000A28000800093D002DE9F84F040070D059
:101670002078C04DC00749D06868C0F381000128B8
:1016800007D06868C0F38100022809D16868C003E8
:1016900006D52868800339D560680028E7D035E092
:1016A0006068B0F5803F0BD010B1B0F5A02F11D01D
:1016B000286820F480302860286820F4802002E028
:1016C000286840F480302860606890B1FFF76CFDB6
:1016D00006460AE0286840F480202860F0E700BF52
:1016E000FFF762FD801B642873D828688003F7D554
:1016F0000CE0FFF759FD064605E000BFFFF754FD7B
:10170000801B6428F0D828688003F7D420789A4E8C
:1017100080074FF001094FF0000839D5686810F0D4
:101720000C0F07D06868C0F38100022809D16868EF
:10173000C00306D42868800714D52069012808D181
:1017400010E02069B0B1C6F80090FFF72DFD074604
:1017500005E00AE1FFF728FDC01B0228C4D828686D
:101760008007F7D52868616920F0F80040EAC100D9
:1017700028600DE0C6F80080FFF716FD074604E07C
:10178000FFF712FDC01B022823D828688007F7D472
:10179000207800072CD57948A169D9B1C0F800900C
:1017A000FFF702FD074604E0FFF7FEFCC01B02281E
:1017B0000FD8686A8007F7D571484FF4FA5100686E
:1017C000B0FBF1F0009000BF0098411E0091FAD2EA
:1017D0000EE080E0C0F80080FFF7E6FC074604E07A
:1017E000FFF7E2FCC01B022875D8686A8007F7D4AF
:1017F0002078400760D5E8690027C00008D4E86970
:1018000040F08050E861E869012700F080500090C6
:101810005C480168C90513D40168834641F48071AE
:101820000160FFF7C1FC824606E000BFFFF7BCFC89
:10183000A0EB0A0064284ED8DBF80000C005F5D5FF
:10184000E06801280AD008B1052813D0286A20F0E2
:1018500001002862286A20F0040002E0286A40F0B3
:1018600001002862E06841F2883B98B1FFF79CFCD8
:1018700082460BE0286A40F004002862EEE700BFD1
:10188000FFF792FCA0EB0A0159455AD8286A800755
:10189000F6D50CE0FFF788FC824605E0FFF784FCF4
:1018A000A0EB0A0159454CD8286A8007F6D41FB12D
:1018B000E86920F08050E861E06988B36968C1F3A5
:1018C0008101022944D00228C6F8608004D0FFF7C5
:1018D0006BFC044638E034E0FFF766FC074604E0A2
:1018E000FFF762FCC01B02282BD828688001F7D4C0
:1018F000206AB0F5803F05D16868A16820F4003007
:1019000008436860D4E908010843696821F4741148
:1019100008436860C6F86090FFF746FC044606E09E
:1019200025E000BFFFF740FC001B022809D828680B
:101930008001F7D51BE000BFFFF736FC001B022833
:1019400002D90320BDE8F88F28688001F4D40EE0A6
:101950000128F7D06868226A00F48031914204D1EE
:10196000616A00F47010884201D00120EAE700208B
:10197000E8E70000001002400000424280044242BA
:10198000180000200070004010B5401EB0F1807FAC
:1019900001D3012010BD4FF0E02460610F216017DA
:1019A00000F0D7FD0020A06107202061002010BDBD
:1019B00070477047F8B5016804460868CA684B6903
:1019C00010F00F0F4FF0000559D003F0010602F49C
:1019D0009077374365D0C10705D0D10503D5616C39
:1019E00041F001016164410705D5D90703D0616C5D
:1019F00041F002016164810705D5D90703D0616C0C
:101A000041F004016164010707D502F02001314370
:101A100003D0616C41F008016164616C00293AD027
:101A2000800604D5900602D5204600F02BFC2068E5
:101A30004069616CC0F38010090700D460B3204690
:101A400000F0EBFB20684069400621D52068143087
:101A500050E8001F21F0400140E80012002AF5D1B3
:101A6000E06BA8B16D494163E06BFFF753F80028C4
:101A700011D0E06B416B01B0BDE8F0400847830630
:101A80000FD593060DD52046BDE8F84000F0FABB0F
:101A90002046FFF78EFFF8BD2046FFF78AFF6564FA
:101AA000F8BD266B2023012E7CD1C6067AD5D6063A
:101AB00078D508684868009048694FF002064006EB
:101AC00040D5E16B086840680004000CE8D0A28DA6
:101AD0008242E5D9E085886920282DD020680C3025
:101AE00050E8001F21F4807140E80012002AF5D16F
:101AF0002068143050E8001F21F0010140E8001276
:101B0000002AF5D12068143050E8001F21F0400170
:101B100040E80012002AF5D184F84230256320689D
:101B20000C3050E8001F21F0100140E80012002A9C
:101B3000F5D1E06BFEF7CAFF6663A08DE18D401A18
:101B400081B22AE0A08DE18D401A81B2E08D00289B
:101B5000A6D00029A4D022680C3252E8000F20F44D
:101B6000907042E80007002FF5D12068143050E84B
:101B7000002F22F0010240E80027002FF5D184F861
:101B80004230256320680C3050E8002F22F010020C
:101B900040E80023002BF5D166632046FFF708FFDD
:101BA000F8BDFFE705062BD5150629D594F84100A9
:101BB0002128F5D1A068B0F5805F01D12069B0B1CE
:101BC000206A411C2162216800784860E08C401E38
:101BD0000004000CE084E3D12068C16821F080019A
:101BE000C1602068C16841F04001C160D8E7206A47
:101BF0000088C0F308004860206A801C2062E5E786
:101C00004006CDD55006CBD5CA68204622F040020A
:101C1000CA6084F8413000F05EF9C1E71D21000878
:101C200070B5040004D094F84100002510B106E01E
:101C3000012070BD84F84050204600F023F8242095
:101C400084F841002068C16821F40051C160204639
:101C500000F07AFB2068016921F49041016120685D
:101C6000416921F02A0141612068C16841F40051B5
:101C7000C1606564202084F8410084F842006563F7
:101C8000002070BDF0B585B000240094019402944A
:101C900003940646374F0368374902220320374D25
:101CA000BB4226D18B6943F480438B618B6903F47B
:101CB000804304938B6943F004038B61896903902B
:101CC00001F0040104911102CDE900126946284691
:101CD000FFF764F92815CDE9000469462846029407
:101CE000FFF75CF9002211462520FFF7DDFA2520D9
:101CF0003CE0234FBB423BD1CB6943F40033CB6183
:101D0000CB6903F4003304938B6943F004038B61C4
:101D10008969039001F0040104910421CDE90012C6
:101D200069462846FFF73AF90820CDE900046946DC
:101D300028460294FFF732F9134D1248C5E9000412
:101D40008020C5E902402C6140016C61C5E9064074
:101D50002846FFF79BF808B1FEF75FFCF563002209
:101D6000114626206E62FFF79FFA2620FFF78FFAB2
:101D700005B0F0BD003801400010024000080140ED
:101D8000004400406C0002409C01002090F842306A
:101D9000202B01D00220704721B11AB10023036328
:101DA00000F02EBB0120704790F84230202B01D06C
:101DB0000220704721B11AB10023036300F068BB11
:101DC0000120704770B5044600681049884213D15D
:101DD0000F4DA888401C80B2A880402805D3002061
:101DE000A88040210B48FEF730FA0A48A988012252
:101DF00001440948FFF7D8FF08492068884204D108
:101E0000BDE8704006A000F06DB970BD003801401B
:101E1000000000209C0000200C0100200044004035
:101E20005553415254322052582044415441204984
:101E30004E0A000070472DE9F843044690F841002F
:101E4000984616460D46202802D00220BDE8F883A9
:101E500085B17EB100206064212084F84100FFF745
:101E6000A3F9A6848146E684A0682027B0F5805FA8
:101E700002D003E00120E9E7206910B12E460025D9
:101E80000EE000260CE08021204600F01CFBA8B9E3
:101E9000C6B116F8010B21684860E08C401EE08452
:101EA000E08C4B464FF00002CDF800800028EAD1CC
:101EB0004FF04001204600F006FB40B184F841702D
:101EC0000320C3E735F8020BC0F30800E3E784F80A
:101ED00041700020BAE77047FEE700003EB50024DD
:101EE00010480094019402940D49846001600473C9
:101EF0000475012505614FF460214460C161FEF75E
:101F000011FC08B1FEF789FB0095CDE90154694643
:101F10000448FEF785FB002801D0FEF77EFB3EBD9E
:101F200000240140DC000020094808B5416941F067
:101F3000010141614069002200F00100009011465A
:101F40001020FFF7B1F9BDE808401020FFF79FB956
:101F5000001002402DE9F04385B000242048009491
:101F6000019402940394816941F0200181618169A7
:101F700001F020010491816941F0040181618169CE
:101F800001F004010491816941F0100181618069CF
:101F9000DFF8508000F0100004900022012140463C
:101FA000FFF7FDF8DFF840904FF4D0570022394694
:101FB0004846FFF7F4F80125032603960095CDE97E
:101FC000015469464046FEF7E9FF00970396CDE9C4
:101FD000015469464846FEF7E1FF05B0BDE8F083CD
:101FE0000010024000080140001001400C4810B5EC
:101FF0000A4901604FF4E1314160002181600C2207
:10200000C160C0E904128161C161FFF709FE0028C7
:1020100003D0BDE81040FEF700BB10BD0038014002
:102020000C0100200C4810B50A4901604FF4E13161
:102030004160002181600C22C160C0E9041281610D
:10204000C161FFF7EDFD002803D0BDE81040FEF7A9
:10205000E4BA10BD0044004054010020FEE7FEE752
:1020600070477047FFF7A6B830B595B0282168468D
:10207000FEF70DF914210AA8FEF709F918210FA897
:10208000FEF705F901210804CDE9001000250295AD
:1020900002240491CDE907404FF4E010099068460E
:1020A000FFF7E2FA08B172B6FEE70AA90F2081E84D
:1020B00031004FF48060CDE90D0502210AA8FFF739
:1020C000F7F908B172B6FEE74FF4004011900F9493
:1020D0000FA8FFF777F9002801D072B6FEE715B018
:1020E00030BD704710B50446FEF790F8214682B225
:1020F000BDE8104064230148FFF79DBE0C0100209D
:1021000010B50446FEF782F8214682B2BDE81040C1
:1021100064230148FFF78FBE5401002010B5406AC8
:102120000021C185C184FFF744FC10BD70B5446A2D
:102130002068406994F84110C0F3C010002521299F
:1021400004D118B1E584204600F08EF8206840697B
:1021500094F84210C0F38010222904D118B1E5850B
:10216000204600F05AF8606C40F010006064204691
:10217000FFF71FFC70BD10B50146406A0968096889
:102180004FF0000289062ED4C28501680C3151E857
:10219000003F23F4807341E80034002CF5D101683E
:1021A000143151E8003F23F0010341E80034002CD2
:1021B000F5D10168143151E8003F23F0400341E8B4
:1021C0000034002CF5D1202180F84210016B012948
:1021D00009D101680C3151E8003F23F0100341E8B8
:1021E0000034002CF5D14263016B012902D0FFF7C6
:1021F000E9FD10BD818DFFF7DBFB10BD10B5406A16
:1022000001214163016B012902D0FFF713FE10BDCC
:10221000818D4908FFF7CCFB10BD01680C3151E8F6
:10222000002F22F4907241E80023002BF5D10168C1
:10223000143151E8002F22F0010241E80023002B65
:10224000F5D1016B012909D101680C3151E8002F4A
:1022500022F0100241E80023002BF5D1202180F864
:10226000421000210163704701680C3151E8002FD2
:1022700022F0C00241E80023002BF5D1202180F894
:102280004110704708B590F84210222901D0022071
:1022900008BD82684FF480539A4201D1016921B18F
:1022A000816A9A421BD04AB10AE00268816A526888
:1022B000C2F308020A80816A891C08E0026972B1CF
:1022C0000268526802F07F020A70816A491C8162CA
:1022D000C18D491E0904090CC18503D01BE00268A9
:1022E0005268F1E70168CA6822F02002CA600168FA
:1022F000CA6822F48072CA6001684A6922F0010249
:102300004A61202180F8421000214163026B012ABA
:1023100003D0FFF757FD002008BD016301680C31B1
:1023200051E8002F22F0100241E80023002BF5D1E4
:1023300001680A68D20602D50A6849680091818D51
:10234000FFF736FBE7E7000070B504460068016957
:10235000E26821F44051114301612169A0680843FA
:10236000616908432168CA6841F20C639A430243D9
:10237000CA6020684169A26921F44071114341613A
:102380001E492068884202D1FFF738F901E0FFF7C3
:1023900025F900EBC00101EB0012606864218000A8
:1023A000B2FBF0F3B3FBF1F36FF018067343B2FB2B
:1023B000F0F5B2FBF0F605EB8305322303EB0515D0
:1023C000B5FBF1F5B6FBF1F605F0F00505EB0615EA
:1023D000B2FBF0F6B2FBF0F0B0FBF1F06FF01802D8
:1023E000504306EB800003EB0010B0FBF1F02168D6
:1023F00000F00F002844886070BD000000380140E4
:1024000038B581620446828500201346606422222A
:1024100084F84220E56B1B4AAA62E56B1A4AEA621D
:10242000E56B1A4A2A63E26B50630A462168E06B47
:10243000091DFEF769FD2068016840680090206969
:1024400048B120680C3050E8001F41F4807140E82A
:102450000012002AF5D12068143050E8001F41F026
:10246000010140E80012002AF5D12068143050E83C
:10247000001F41F0400140E80012002AF5D1002081
:1024800038BD000077210008FD2100082D2100083B
:1024900081628285C28500214164222180F8421038
:1024A000016921B10168CA6842F48072CA6001689A
:1024B0004A6942F001024A610068C16841F02001A6
:1024C000C160002070472DE9F843984617460D4635
:1024D0000446089E24E0701C22D0FEF765FEA0EBA7
:1024E0000800B0421AD8CEB12068C168490717D594
:1024F000802D15D0402D13D00168C94309070FD492
:1025000001680025406800902046FFF786FE0820FD
:10251000606484F840500120BDE8F8830320FBE7A5
:102520002068006835EA000004D00020B842D2D00C
:102530000020F1E70120F9E70148FFF73BBA00006E
:102540000C0100200148FFF735BA000054010020BB
:10255000FEE70907090E002804DB00F1E02080F8FF
:102560000014704700F00F0000F1E02080F8141D07
:1025700070470000FEB50022009201925A228DF8A9
:102580000020A5228DF8012005228DF8022082224C
:102590008DF80320020A8DF804208DF80500080A42
:1025A0008DF806008DF8071000206D46401CC0B263
:1025B0000728FBD30A4E0824C4F108000A23285C2C
:1025C0008DF80800012202A90548FFF734FC3068A5
:1025D0000168C9430906FBD4641EEDD2FEBD0000AC
:1025E0005401002008B5FEF7EDFDFFF73DFDFFF7B4
:1025F000B1FCFFF799FCFFF7F9FCFFF713FDFFF7BC
:102600006DFC1020FEF732FE80222B492B48FFF78D
:10261000BDFB2A480168CA6842F01002CA6000681F
:10262000C16841F02001C1606320ADF80000BDF831
:1026300000104FF48050FFF79DFF1F4901228031A9
:102640001F48FFF7B1FB1E480068C16841F0100148
:10265000C1601C4C002500BFFDF7E8FEE080FDF7DF
:1026600017FF00F049F8A060207801280CD12570F0
:1026700015A0FFF745FD80210F48FDF7E6FD8022FC
:102680000D490E48FFF782FB607801280FD1657075
:1026900012A0FFF727FD084840218030FDF7D5FD47
:1026A0000549A580012280310548FFF77DFB6420A4
:1026B000FEF762FCD0E700001C000020540100205F
:1026C0000C010020000000204447555320444D4198
:1026D0002052656376204F4B0D0A0000495220447A
:1026E00061746120526563760D0A0000014800F0B4
:1026F0001BB800BF0000C07F10F0004148BF40423F
:10270000B0FA80F310FA03F2C3F19D030BD051EA43
:10271000C35101EB1220530638BF704700F101008E
:1027200008BF20F0010070470CF00F03092B08BF11
:10273000082000F051800A2B0BD0082B18BF7047DF
:1027400008BF1CF0400F0AD04FF000004FF000010E
:1027500070471CF0400F18BF4FF0004070471CF04E
:10276000100F08D020F0704300F07F4242EAD301FE
:102770004FEA4370704700F0604021F07F4242EA28
:10278000000201F07F4040EA727070474FF0FF0294
:1027900012EAD0521CBF92F0FF038B42C2BFD1425B
:1027A00000EBC1507047002A0AD0002B0BD0002943
:1027B00000F00040A4BF40F0FE4040F4000070472D
:1027C00000F00040704743024FF00B0C18BF4CF074
:1027D000806C7FF48BAF70471CF4801F11D01CF409
:1027E000E02F03D06FEACC31490070474FF04050E2
:1027F000EFF3008222F0704242EA000282F3008886
:1028000070474FF0000070470102020304050607FD
:1028100008090A0B0C0D0E0F10100102020304052B
:10282000060708090A0B0C0D0E0F1010000000001F
:102830000000000001020304060708090000000070
:102840000102030464280008000000201C000000AE
:102850006C010008802800081C00002024080000EB
:1028600088010008000000000000000000000000D7
:1028700001000000100000000000000000127A00BB
:0400000508000131BD
:00000001FF
